:020000040800F2
:10000000600600204D010008550100085701000856
:1000100000000000000000000000000000000000E0
:10002000000000000000000000000000590100086E
:1000300000000000000000005B0100085D010008F6
:100040005F0100085F0100085F0100085F01000810
:10005000C10100085F0100085F0100085F0100089E
:100060005F0100085F0100085F0100085F010008F0
:100070005F0100085F0100085F0100085F010008E0
:100080005F0100085F010008000000005F01000838
:100090005F0100085F0100085F0100085F010008C0
:1000A0005F0100085F0100085F0100085F010008B0
:1000B0005F010008000000005F0100080000000070
:1000C00000F002F800F032F80CA030C8083824180C
:1000D0002D18A246671EAB4654465D46AC4201D180
:1000E00000F024F87E460F3E0FCCB6460126334280
:1000F00000D0FB1AA246AB4633431847580700000E
:10010000680700000023002400250026103A01D3D0
:1001100078C1FBD8520700D330C100D50B607047BF
:100120001FB5C046C0461FBD10B510BD00F053FB43
:100130001146FFF7F5FF00F025F800F06BFB03B464
:10014000FFF7F2FF03BC00F06FFB00000748804799
:1001500007480047FEE7FEE7FEE7FEE7FEE7FEE7AB
:1001600004480549054A064B70470000F3010008A2
:10017000C10000086000002060060020600200202E
:100180006002002000F070FA00F0CAFA432000F08C
:1001900085FA01220921432000F072F80FE00921BD
:1001A000432000F0CEF9FF20F53000F0F4FA0921E9
:1001B000432000F004FAFF20F53000F0ECFAEEE7FF
:1001C0002C48806808210840002811D02948806800
:1001D0000904084327498860084640688008800071
:1001E000486008464068012108432249486072B6C9
:1001F000704720480068012108431E4908600846EE
:1002000040681D4908401B494860084600681B4972
:10021000084018490860084600680121890488439D
:1002200014490860084640683F2109048843114981
:100230004860084640680009000148600846006BB5
:10024000FF21543188430B4908630846006BFF21A6
:1002500094318843074908630846006B80210843AE
:10026000044908630846406B40084000486300208A
:1002700088607047001002400CB8FFF8FFFFF6FEE0
:1002800030B50446413C230000F0D5FA06043B6A31
:1002900099C8F83A002A06D0012A0FD0022A18D0AD
:1002A000032A2CD120E00923DB061B684D00002423
:1002B000AC4023430924E406236020E00923DB0645
:1002C0001B684D000124AC4023430924E40623604D
:1002D00015E00923DB061B684D000224AC402343D4
:1002E0000924E40623600AE00923DB061B684D00AD
:1002F0000324AC4023430924E406236000BF00BF6D
:10030000EBE0002A06D0012A0DD0022A14D0032ADD
:1003100024D11AE0CF4B1B684D000024AC4023438E
:10032000CC4C23601AE0CB4B1B684D000124AC4041
:100330002343C84C236011E0C64B1B684D000224C8
:10034000AC402343C34C236008E0C24B1B684D0004
:100350000324AC402343BF4C236000BF00BFBCE07C
:10036000002A06D0012A0DD0022A14D0032A24D153
:100370001AE0B94B1B684D000024AC402343B64C37
:1003800023601AE0B44B1B684D000124AC402343AA
:10039000B14C236011E0B04B1B684D000224AC400F
:1003A0002343AD4C236008E0AB4B1B684D00032496
:1003B000AC402343A84C236000BF00BF8DE0002A5F
:1003C00006D0012A0DD0022A14D0032A24D11AE023
:1003D000A24B1B684D000024AC4023439F4C23607C
:1003E0001AE09E4B1B684D000124AC4023439B4CFC
:1003F000236011E0994B1B684D000224AC4023435D
:10040000964C236008E0954B1B684D000324AC40DC
:100410002343924C236000BF00BF5EE0002A06D059
:10042000012A0DD0022A14D0032A24D11AE08C4BC1
:100430001B684D000024AC402343894C23601AE024
:10044000874B1B684D000124AC402343844C236040
:1004500011E0834B1B684D000224AC402343804CC9
:10046000236008E07E4B1B684D000324AC4023430F
:100470007B4C236000BF00BF2FE0FFE7002A06D0BF
:10048000012A0DD0022A14D0032A24D11AE0754B78
:100490001B684D000024AC402343724C23601AE0DB
:1004A000704B1B684D000124AC4023436D4C23600E
:1004B00011E06C4B1B684D000224AC402343694C97
:1004C000236008E0674B1B684D000324AC402343C6
:1004D000644C236000BF00BF00BF00BF30BD00B54B
:1004E0000246413A130000F0A6F906040C12181E49
:1004F000242A0922D20652690A430923DB065A61DB
:100500001DE0544A52690A43524B5A6117E0524A5D
:1005100052690A43504B5A6111E0504A52690A43EA
:100520004E4B5A610BE04E4A52690A434C4B5A619A
:1005300005E04C4A52690A434A4B5A6100BF00BF6A
:1005400000BD00B50246413A130000F074F90604FC
:100550000E161E262E360922D206926901238B40E2
:100560001A430923DB069A6127E03A4A926901237C
:100570008B401A43374B9A611FE0374A9269012337
:100580008B401A43344B9A6117E0344A9269012335
:100590008B401A43314B9A610FE0314A9269012333
:1005A0008B401A432E4B9A6107E02E4A9269012331
:1005B0008B401A432B4B9A6100BF00BF00BD10B5A2
:1005C0000246413A130000F036F90604101A242EB0
:1005D00038420922D20692690B46103301249C400E
:1005E00022430923DB069A6131E01A4A92690B46DD
:1005F000103301249C402243164B9A6127E0164A8F
:1006000092690B46103301249C402243124B9A619D
:100610001DE0124A92690B46103301249C4022438C
:100620000E4B9A6113E00E4A93690A461032012478
:10063000944023430A4A936109E00A4A92690B46AF
:10064000103301249C402243064B9A6100BF00BF37
:1006500010BD00000004004800080048000C0048DD
:1006600000100048001400482A48406829494860A2
:1006700029480068102108432749086062B62748C6
:1006800080680121C902084324498860084600683F
:100690000D210904084321490860704700B501464F
:1006A00041390B0000F0C7F806040C141C242C344C
:1006B0001A494969012252041143184A516127E03D
:1006C00016494969012292041143144A51611FE0FD
:1006D000124949690122D2041143104A516117E0BD
:1006E0000E4949690122120511430C4A51610FE07C
:1006F0000A494969012252051143084A516107E03C
:1007000006494969012292051143044A516100BF1B
:1007100000BF00BD00E400E000E100E00010024086
:100720000020294908610846006904210843264938
:100730000861084600690221C9430843224908614B
:1007400070472149486100211F4A9161114609699A
:10075000121711431C4A1161114609690122114304
:10076000194A1161704718490969012212041140A0
:100770000846000C704700B5034607E00720FFF766
:10078000E0FF00BFFFF7EFFF0028FBD018465B1E1D
:100790000028F3D100BD00B5034607E00B48FFF782
:1007A000D0FF00BFFFF7DFFF0028FBD018465B1E1D
:1007B0000028F3D100BD10B504467D21C900614376
:1007C0000846FFF7E8FF10BD00E000E03F1F000013
:1007D000704770477047754600F022F8AE46050036
:1007E00069465346C008C000854618B020B5FFF7DB
:1007F000B7FC60BC00274908B6460026C0C5C0C586
:10080000C0C5C0C5C0C5C0C5C0C5C0C5403D490004
:100810008D4670470446C046C0462046FFF78FFC11
:10082000004870470000002001491820ABBEFEE7D9
:1008300026000200704730B47446641E2578641C9C
:10084000AB4204D3635D5B00E31830BC18471D4620
:10085000F8E70000640800080000002060060000BF
:040860000401000887
:04000005080000C12E
:00000001FF
