:020000040800F2
:1000000000040020D5000008DD000008DF00000823
:1000100000000000000000000000000000000000E0
:10002000000000000000000000000000E1000008E7
:100030000000000000000000E3000008E5000008E8
:10004000E7000008E7000008E7000008E7000008F4
:100050007D050008E7000008E7000008E700000849
:10006000E7000008E7000008E7000008E7000008D4
:10007000E7000008E7000008E7000008E7000008C4
:10008000E7000008E700000800000000E7000008A3
:10009000E7000008E7000008E7000008E7000008A4
:1000A000E7000008E7000008E7000008E700000894
:1000B000E700000800000000E70000080000000062
:1000C0000348854600F014F8004800479D060008E4
:1000D000000400200448804704480047FEE7FEE78C
:1000E000FEE7FEE7FEE7FEE7B1050008C1000008F5
:1000F000064C0125064E05E0E36807CC2B430C3C7B
:1001000098471034B442F7D3FFF7DEFFEC0600083F
:10011000FC06000810B50246413A130000F090FAC0
:100120000604101A242E38420922D20692690B4680
:10013000103301249C4022430923DB069A6131E0FD
:10014000194A92690B46103301249C402243164BF6
:100150009A6127E0154A92690B46103301249C40AE
:100160002243124B9A611DE0114A92690B461033EB
:1001700001249C4022430E4B9A6113E00D4A93697F
:100180000A4610320124944023430A4A936109E04D
:10019000094A92690B46103301249C402243064BC6
:1001A0009A6100BF00BF10BD00040048000800486D
:1001B000000C0048001000480014004800B502463A
:1001C000413A130000F03CFA06040E161E262E36A5
:1001D0000922D206926901238B401A430923DB06C8
:1001E0009A6127E0144A926901238B401A43124B0B
:1001F0009A611FE0114A926901238B401A430F4B09
:100200009A6117E00E4A926901238B401A430C4B06
:100210009A610FE00B4A926901238B401A43094B04
:100220009A6107E0084A926901238B401A43064B02
:100230009A6100BF00BF00BD0004004800080048EC
:10024000000C0048001000480014004830B5044677
:10025000413C230000F0F4F906043B6A99C8F83ADF
:10026000002A06D0012A0FD0022A18D0032A2CD146
:1002700020E00923DB061B684D000024AC4023432B
:100280000924E406236020E00923DB061B684D00F7
:100290000124AC4023430924E406236015E009232C
:1002A000DB061B684D000224AC4023430924E4060E
:1002B00023600AE00923DB061B684D000324AC40E1
:1002C00023430924E406236000BF00BFEBE0002ABB
:1002D00006D0012A0DD0022A14D0032A24D11AE014
:1002E000724B1B684D000024AC4023436F4C2360CD
:1002F0001AE06E4B1B684D000124AC4023436B4C4D
:10030000236011E0694B1B684D000224AC4023437D
:10031000664C236008E0654B1B684D000324AC402D
:100320002343624C236000BF00BFBCE0002A06D01C
:10033000012A0DD0022A14D0032A24D11AE05C4BE2
:100340001B684D000024AC402343594C23601AE045
:10035000574B1B684D000124AC402343544C236091
:1003600011E0534B1B684D000224AC402343504C1A
:10037000236008E04E4B1B684D000324AC40234330
:100380004B4C236000BF00BF8DE0002A06D0012A3D
:100390000DD0022A14D0032A24D11AE0454B1B6841
:1003A0004D000024AC402343424C23601AE0414BF3
:1003B0001B684D000124AC4023433E4C236011E0F8
:1003C0003C4B1B684D000224AC402343394C236056
:1003D00008E0384B1B684D000324AC402343354CE8
:1003E000236000BF00BF5EE0002A06D0012A0DD0C6
:1003F000022A14D0032A24D11AE02F4B1B684D0087
:100400000024AC4023432C4C23601AE02A4B1B6889
:100410004D000124AC402343274C236011E0264BC0
:100420001B684D000224AC402343234C236008E0AA
:10043000214B1B684D000324AC4023431E4C23601A
:1004400000BF00BF2FE0FFE7002A06D0012A0DD031
:10045000022A14D0032A24D11AE0184B1B684D003D
:100460000024AC402343154C23601AE0134B1B6857
:100470004D000124AC402343104C236011E00F4B8E
:100480001B684D000224AC4023430C4C236008E061
:100490000A4B1B684D000324AC402343074C2360E8
:1004A00000BF00BF00BF00BF30BD00000004004817
:1004B00000080048000C00480010004800140048E4
:1004C00000B5014641390B0000F0BAF806040C14DF
:1004D0001C242C3418494969012252041143164A3C
:1004E000516127E014494969012292041143124ADB
:1004F00051611FE0104949690122D20411430E4A9B
:10050000516117E00C4949690122120511430A4A59
:1005100051610FE008494969012252051143064A19
:10052000516107E004494969012292051143024AD9
:10053000516100BF00BF00BD001002400C48406880
:100540000B4948600B4800681021084309490860BE
:1005500062B6094880680121C902084306498860DB
:10056000084600680D2109040843034908607047E4
:1005700000E400E000E100E0001002400B48806869
:1005800008210840002810D0084880680904084362
:100590000649886008464068800880004860084630
:1005A000406801210843014948607047001002403B
:1005B00020480068012108431E4908600846406839
:1005C0001D4908401B494860084600681B4908400F
:1005D00018490860084600680121890488431549C4
:1005E0000860084640683F21090488431149486073
:1005F000084640680009000148600846006BFF217A
:10060000543188430B4908630846006BFF2194313D
:100610008843084908630846006B80210843054960
:1006200008630846406B400840004863002088602B
:1006300070470000001002400CB8FFF8FFFFF6FE04
:1006400030B47446641E2578641CAB4204D3635DE9
:100650005B00E31830BC18471D46F8E702E008C805
:10066000121F08C1002AFAD170477047002001E02C
:1006700001C1121F002AFBD170470000002107E0D2
:10068000002201E000BF521C034B9A42FAD3491CDE
:100690008142F5D370470000FF0F0000FFF74EFFC7
:1006A0004320FFF70DFF012208214320FFF7CEFD75
:1006B000012209214320FFF7C9FD15E0082143204D
:1006C000FFF77CFD09214320FFF724FDAA20FFF757
:1006D000D5FF08214320FFF71DFD09214320FFF727
:1006E0006DFDAA20FFF7CAFFE8E70000FC0600083E
:0C06F00000000020000400006C06000860
:04000005080000C12E
:00000001FF
