:020000040800F2
:1000000068060020690100087101000873010008FA
:1000100000000000000000000000000000000000E0
:100020000000000000000000000000007501000852
:1000300000000000000000007701000879010008BE
:100040007B0100087B0100087B0100087B010008A0
:100050007B0100087B0400087B0100087B0100088D
:100060007B0100087B0100087B0100087B01000880
:100070007B0100087B0100087B0100087B01000870
:100080007B0100087B010008000000007B010008E4
:100090007B0100087B0100087B0100087B01000850
:1000A0007B0100087B0100087B0100087B01000840
:1000B0007B010008000000007B0100080000000038
:1000C00000F002F800F040F80CA030C808382418FE
:1000D0002D18A246671EAB4654465D46AC4201D180
:1000E00000F032F87E460F3E0FCCB6460126334272
:1000F00000D0FB1AA246AB463343184778040000F1
:1001000098040000103A02D378C878C1FAD8520790
:1001100001D330C830C101D504680C6070470000BD
:100120000023002400250026103A01D378C1FBD813
:10013000520700D330C100D50B6070471FB5C046D1
:10014000C0461FBD10B510BD00F0E3F91146FFF722
:10015000F5FF00F0B3F900F0FBF903B4FFF7F2FF8D
:1001600003BC00F0FFF9000007488047074800473C
:10017000FEE7FEE7FEE7FEE7FEE7FEE70448054987
:10018000054A064B7047000079040008C1000008CA
:100190006800002068060020680200206802002035
:1001A000002107E0002201E000BF521C034B9A42ED
:1001B000FAD3491C8142F5D370470000FF0F0000BD
:1001C0008E49496901225204914308461146084369
:1001D0008A494861704789494969012292049143DB
:1001E0000846114608438549486170478349496973
:1001F0000122D20491430846114608437F494861D1
:1002000070470922D2061268110E09067C4A114372
:100210000922D2061160506170477A497A4A11600A
:100220001146486170477749784A11601146486124
:10023000704730B50A460923DB061B6845000324D6
:10024000AC40A3431946002A06D0012A09D0022A4D
:100250000CD0032A14D10EE044000023A34019431C
:100260000EE044000123A340194309E044000223A7
:10027000A340194304E044000323A340194300BFF3
:1002800000BF0923DB06196030BD30B50A465E4B5E
:100290001B6845000324AC40A3431946002A06D03E
:1002A000012A09D0022A0CD0032A14D10EE04400FE
:1002B0000023A34019430EE044000123A340194347
:1002C00009E044000223A340194304E0440003234F
:1002D000A340194300BF00BF4B4B196030BD30B580
:1002E0000A464A4B1B6845000324AC40A343194609
:1002F000002A06D0012A09D0022A0CD0032A14D1E0
:100300000EE044000023A34019430EE04400012303
:10031000A340194309E044000223A340194304E029
:1003200044000323A340194300BF00BF374B1960AB
:1003300030BD10B50A460923DB069B6901248440C1
:10034000A3431946012A06D10123834019430923F7
:10035000DB06996107E0044610340123A3401943EA
:100360000923DB06996110BD10B50A46264B9B692F
:1003700001248440A3431946012A05D10123834067
:100380001943214B996106E0044610340123A34030
:1003900019431D4B996110BD10B50A461B4B9B6953
:1003A00001248440A3431946012A05D10123834037
:1003B0001943164B996106E0044610340123A3400B
:1003C0001943124B996110BD01460922D2061269E8
:1003D00001238B401A401046704701460A4A1269B1
:1003E00001238B401A40104670470146074A1269A4
:1003F00001238B401A401046704700000010024055
:10040000FFFFFF00555555550004004800080048FF
:10041000154909684808400001210843124908604D
:10042000896848084000012108430F4988600F4946
:1004300089680809000100BF0C4988600C494968B7
:10044000FF2212029143084601218903084308490B
:100450004860084909682022914308462021084342
:100460000449086062B67047000401400000014082
:1004700000E400E000E100E0704710B52048007D96
:10048000C407E40F002C12D01E480068012807D1D1
:1004900001210920FFF780FF00201A49086006E0CB
:1004A00000210920FFF778FF01201649086001208C
:1004B0001349486120201449086010BDFFF780FEF1
:1004C000FFF794FE00210846FFF7B3FE0121082044
:1004D000FFF705FF01210920FFF701FFFFF798FF54
:1004E0000DE001210820FFF757FFFF20FFF758FE1E
:1004F00000210820FFF750FFFF20FFF751FEF0E733
:10050000000401400000002080E200E070477047D6
:100510007047754600F022F8AE460500694653461E
:10052000C008C000854618B020B5FFF727FE60BCA4
:1005300000274908B6460026C0C5C0C5C0C5C0C50D
:10054000C0C5C0C5C0C5C0C5403D49008D46704747
:100550000446C046C0462046FFF7FFFD00487047EE
:100560000400002001491820ABBEFEE7260002006F
:1005700070470000940500080000002004000000FF
:10058000040100089805000804000020640600002B
:0805900020010008000000003A
:04000005080000C12E
:00000001FF
